{
  "address": "0x32Cd6c5831531F96f57d1faf4DDdf0222c4Af8AB",
  "abi": [
    {
      "inputs": [],
      "stateMutability": "nonpayable",
      "type": "constructor"
    },
    {
      "inputs": [],
      "name": "ConfirmationAddressMismatch",
      "type": "error"
    },
    {
      "inputs": [],
      "name": "EmptyArgs",
      "type": "error"
    },
    {
      "inputs": [],
      "name": "EmptySource",
      "type": "error"
    },
    {
      "inputs": [],
      "name": "NoInlineSecrets",
      "type": "error"
    },
    {
      "inputs": [],
      "name": "OnlyRouterCanFulfill",
      "type": "error"
    },
    {
      "inputs": [
        {
          "internalType": "bytes32",
          "name": "requestId",
          "type": "bytes32"
        }
      ],
      "name": "UnexpectedRequestID",
      "type": "error"
    },
    {
      "anonymous": false,
      "inputs": [
        {
          "indexed": false,
          "internalType": "string",
          "name": "ans",
          "type": "string"
        }
      ],
      "name": "CHAR",
      "type": "event"
    },
    {
      "anonymous": false,
      "inputs": [
        {
          "indexed": true,
          "internalType": "address",
          "name": "seller",
          "type": "address"
        },
        {
          "indexed": true,
          "internalType": "address",
          "name": "buyer",
          "type": "address"
        },
        {
          "indexed": false,
          "internalType": "uint256",
          "name": "tradeId",
          "type": "uint256"
        },
        {
          "indexed": false,
          "internalType": "uint256",
          "name": "amountClaimed",
          "type": "uint256"
        }
      ],
      "name": "EthClaimed",
      "type": "event"
    },
    {
      "anonymous": false,
      "inputs": [
        {
          "indexed": true,
          "internalType": "address",
          "name": "from",
          "type": "address"
        },
        {
          "indexed": true,
          "internalType": "address",
          "name": "to",
          "type": "address"
        }
      ],
      "name": "OwnershipTransferRequested",
      "type": "event"
    },
    {
      "anonymous": false,
      "inputs": [
        {
          "indexed": true,
          "internalType": "address",
          "name": "from",
          "type": "address"
        },
        {
          "indexed": true,
          "internalType": "address",
          "name": "to",
          "type": "address"
        }
      ],
      "name": "OwnershipTransferred",
      "type": "event"
    },
    {
      "anonymous": false,
      "inputs": [
        {
          "indexed": true,
          "internalType": "bytes32",
          "name": "id",
          "type": "bytes32"
        }
      ],
      "name": "RequestFulfilled",
      "type": "event"
    },
    {
      "anonymous": false,
      "inputs": [
        {
          "indexed": true,
          "internalType": "bytes32",
          "name": "id",
          "type": "bytes32"
        }
      ],
      "name": "RequestSent",
      "type": "event"
    },
    {
      "anonymous": false,
      "inputs": [
        {
          "indexed": true,
          "internalType": "bytes32",
          "name": "requestId",
          "type": "bytes32"
        },
        {
          "indexed": false,
          "internalType": "string",
          "name": "character",
          "type": "string"
        },
        {
          "indexed": false,
          "internalType": "bytes",
          "name": "response",
          "type": "bytes"
        },
        {
          "indexed": false,
          "internalType": "bytes",
          "name": "err",
          "type": "bytes"
        }
      ],
      "name": "Response",
      "type": "event"
    },
    {
      "anonymous": false,
      "inputs": [
        {
          "indexed": false,
          "internalType": "uint64",
          "name": "id",
          "type": "uint64"
        }
      ],
      "name": "attestationEvent",
      "type": "event"
    },
    {
      "inputs": [
        {
          "internalType": "uint256",
          "name": "tradeId",
          "type": "uint256"
        }
      ],
      "name": "Read",
      "outputs": [
        {
          "internalType": "address",
          "name": "buyerAddress",
          "type": "address"
        },
        {
          "internalType": "uint256",
          "name": "buyerCryptoLock",
          "type": "uint256"
        },
        {
          "internalType": "address",
          "name": "sellerAddress",
          "type": "address"
        },
        {
          "internalType": "uint256",
          "name": "sellerCryptoLock",
          "type": "uint256"
        },
        {
          "internalType": "string",
          "name": "trxMoney",
          "type": "string"
        },
        {
          "internalType": "uint256",
          "name": "inrAmount",
          "type": "uint256"
        },
        {
          "internalType": "uint256",
          "name": "ethLock",
          "type": "uint256"
        },
        {
          "internalType": "uint256",
          "name": "INR_Paid_to_Seller",
          "type": "uint256"
        },
        {
          "internalType": "bytes32",
          "name": "lastRequestId",
          "type": "bytes32"
        },
        {
          "internalType": "bool",
          "name": "agreed",
          "type": "bool"
        }
      ],
      "stateMutability": "view",
      "type": "function"
    },
    {
      "inputs": [],
      "name": "acceptOwnership",
      "outputs": [],
      "stateMutability": "nonpayable",
      "type": "function"
    },
    {
      "inputs": [
        {
          "internalType": "address",
          "name": "_buyer",
          "type": "address"
        }
      ],
      "name": "buyer",
      "outputs": [],
      "stateMutability": "nonpayable",
      "type": "function"
    },
    {
      "inputs": [],
      "name": "characters",
      "outputs": [
        {
          "internalType": "string",
          "name": "",
          "type": "string"
        }
      ],
      "stateMutability": "view",
      "type": "function"
    },
    {
      "inputs": [
        {
          "internalType": "uint256",
          "name": "tradeId",
          "type": "uint256"
        }
      ],
      "name": "claim",
      "outputs": [],
      "stateMutability": "payable",
      "type": "function"
    },
    {
      "inputs": [
        {
          "internalType": "address",
          "name": "sellerAddress",
          "type": "address"
        },
        {
          "internalType": "uint256",
          "name": "tradeId",
          "type": "uint256"
        },
        {
          "internalType": "bytes",
          "name": "_data",
          "type": "bytes"
        }
      ],
      "name": "confirmOffRamp",
      "outputs": [
        {
          "internalType": "uint64",
          "name": "",
          "type": "uint64"
        }
      ],
      "stateMutability": "nonpayable",
      "type": "function"
    },
    {
      "inputs": [
        {
          "internalType": "bytes32",
          "name": "requestId",
          "type": "bytes32"
        },
        {
          "internalType": "bytes",
          "name": "response",
          "type": "bytes"
        },
        {
          "internalType": "bytes",
          "name": "err",
          "type": "bytes"
        }
      ],
      "name": "handleOracleFulfillment",
      "outputs": [],
      "stateMutability": "nonpayable",
      "type": "function"
    },
    {
      "inputs": [
        {
          "internalType": "address",
          "name": "",
          "type": "address"
        }
      ],
      "name": "isMerchant",
      "outputs": [
        {
          "internalType": "bool",
          "name": "",
          "type": "bool"
        }
      ],
      "stateMutability": "view",
      "type": "function"
    },
    {
      "inputs": [
        {
          "internalType": "address",
          "name": "",
          "type": "address"
        }
      ],
      "name": "isSeller",
      "outputs": [
        {
          "internalType": "bool",
          "name": "",
          "type": "bool"
        }
      ],
      "stateMutability": "view",
      "type": "function"
    },
    {
      "inputs": [],
      "name": "owner",
      "outputs": [
        {
          "internalType": "address",
          "name": "",
          "type": "address"
        }
      ],
      "stateMutability": "view",
      "type": "function"
    },
    {
      "inputs": [],
      "name": "s_lastError",
      "outputs": [
        {
          "internalType": "bytes",
          "name": "",
          "type": "bytes"
        }
      ],
      "stateMutability": "view",
      "type": "function"
    },
    {
      "inputs": [],
      "name": "s_lastRequestId",
      "outputs": [
        {
          "internalType": "bytes32",
          "name": "",
          "type": "bytes32"
        }
      ],
      "stateMutability": "view",
      "type": "function"
    },
    {
      "inputs": [],
      "name": "s_lastResponse",
      "outputs": [
        {
          "internalType": "bytes",
          "name": "",
          "type": "bytes"
        }
      ],
      "stateMutability": "view",
      "type": "function"
    },
    {
      "inputs": [],
      "name": "schemaId",
      "outputs": [
        {
          "internalType": "uint64",
          "name": "",
          "type": "uint64"
        }
      ],
      "stateMutability": "view",
      "type": "function"
    },
    {
      "inputs": [
        {
          "internalType": "address",
          "name": "_seller",
          "type": "address"
        }
      ],
      "name": "seller",
      "outputs": [],
      "stateMutability": "nonpayable",
      "type": "function"
    },
    {
      "inputs": [
        {
          "internalType": "uint256",
          "name": "tradeId",
          "type": "uint256"
        },
        {
          "internalType": "uint64",
          "name": "subscriptionId",
          "type": "uint64"
        },
        {
          "internalType": "string[]",
          "name": "args",
          "type": "string[]"
        }
      ],
      "name": "sendRequest",
      "outputs": [
        {
          "internalType": "bytes32",
          "name": "requestId",
          "type": "bytes32"
        }
      ],
      "stateMutability": "nonpayable",
      "type": "function"
    },
    {
      "inputs": [
        {
          "internalType": "uint64",
          "name": "schemaId_",
          "type": "uint64"
        }
      ],
      "name": "setSchemaID",
      "outputs": [],
      "stateMutability": "nonpayable",
      "type": "function"
    },
    {
      "inputs": [],
      "name": "spInstance",
      "outputs": [
        {
          "internalType": "contract ISP",
          "name": "",
          "type": "address"
        }
      ],
      "stateMutability": "view",
      "type": "function"
    },
    {
      "inputs": [
        {
          "internalType": "uint256",
          "name": "tradeId",
          "type": "uint256"
        }
      ],
      "name": "startRound",
      "outputs": [],
      "stateMutability": "payable",
      "type": "function"
    },
    {
      "inputs": [
        {
          "internalType": "uint256",
          "name": "tradeId",
          "type": "uint256"
        },
        {
          "internalType": "uint256",
          "name": "tradeETH",
          "type": "uint256"
        }
      ],
      "name": "submitProposalOffRAMP",
      "outputs": [],
      "stateMutability": "nonpayable",
      "type": "function"
    },
    {
      "inputs": [
        {
          "internalType": "uint256",
          "name": "",
          "type": "uint256"
        }
      ],
      "name": "trades",
      "outputs": [
        {
          "components": [
            {
              "internalType": "address",
              "name": "addr",
              "type": "address"
            },
            {
              "internalType": "uint256",
              "name": "cryptoLock",
              "type": "uint256"
            }
          ],
          "internalType": "struct offRampBased.Merchant",
          "name": "buyer",
          "type": "tuple"
        },
        {
          "components": [
            {
              "internalType": "address",
              "name": "addr",
              "type": "address"
            },
            {
              "internalType": "uint256",
              "name": "cryptoLock",
              "type": "uint256"
            }
          ],
          "internalType": "struct offRampBased.Merchant",
          "name": "seller",
          "type": "tuple"
        },
        {
          "internalType": "string",
          "name": "Trx_Money",
          "type": "string"
        },
        {
          "internalType": "uint256",
          "name": "InrAmount",
          "type": "uint256"
        },
        {
          "internalType": "uint256",
          "name": "EthLock",
          "type": "uint256"
        },
        {
          "internalType": "uint256",
          "name": "INR_Paid_to_Seller",
          "type": "uint256"
        },
        {
          "internalType": "bytes32",
          "name": "s_lastRequestId",
          "type": "bytes32"
        },
        {
          "internalType": "bool",
          "name": "agreed",
          "type": "bool"
        }
      ],
      "stateMutability": "view",
      "type": "function"
    },
    {
      "inputs": [
        {
          "internalType": "address",
          "name": "to",
          "type": "address"
        }
      ],
      "name": "transferOwnership",
      "outputs": [],
      "stateMutability": "nonpayable",
      "type": "function"
    }
  ],
  "transactionHash": "0x9c9280109c2ea20f5ba51093d69c698535474b628aa355651d0f37a96243528a",
  "args": [],
  "numDeployments": 1,
  "solcInputHash": "22883e1c1c38f8b23d5bf26d727e02fb",
  "bytecode": "0x60a0604052600280546001600160a01b031916734e4af2a21ebf62850fd99eb6253e1efbb56098cd1790553480156200003757600080fd5b5073234a5fb5bd614a7aa2ffab244d603abfa0ac5c5c6080523380600081620000a75760405162461bcd60e51b815260206004820152601860248201527f43616e6e6f7420736574206f776e657220746f207a65726f000000000000000060448201526064015b60405180910390fd5b600080546001600160a01b0319166001600160a01b0384811691909117909155811615620000da57620000da81620000e3565b5050506200018e565b336001600160a01b038216036200013d5760405162461bcd60e51b815260206004820152601760248201527f43616e6e6f74207472616e7366657220746f2073656c6600000000000000000060448201526064016200009e565b600180546001600160a01b0319166001600160a01b0383811691821790925560008054604051929316917fed8889f560326eb138920d842192f0eb3dd22b4f139c87a2c57538e05bae12789190a350565b608051612d8a620001b160003960008181610523015261168b0152612d8a6000f3fe6080604052600436106101355760003560e01c80635fc3d52d116100ab578063b1e217491161006f578063b1e21749146103fb578063b77482081461041f578063d070bb541461045e578063e9910c7014610473578063ee95feaf14610493578063f2fde38b146104c357600080fd5b80635fc3d52d1461036157806379ba5097146103745780638da5cb5b146103895780639fc17088146103bb578063a8c5dc33146103db57600080fd5b80631e6c598e116100fd5780631e6c598e1461026e578063379607f5146102a25780633944ea3a146102b557806339b9c30c146102d75780634b0795a8146103165780634fedc4de1461032b57600080fd5b806305ca8ee31461013a578063075b1a091461015c5780630ca76175146101a05780630fdae3c6146101c05780631a2f71671461022e575b600080fd5b34801561014657600080fd5b5061015a610155366004611f0d565b6104e3565b005b34801561016857600080fd5b5060025461018390600160a01b90046001600160401b031681565b6040516001600160401b0390911681526020015b60405180910390f35b3480156101ac57600080fd5b5061015a6101bb366004611fe7565b610518565b3480156101cc57600080fd5b5061015a6101db366004612053565b6040805180820182523381526020808201848152600095865260079091529190932092516002840180546001600160a01b0319166001600160a01b03909216919091179055516003830155600690910155565b34801561023a57600080fd5b5061025e610249366004612091565b60086020526000908152604090205460ff1681565b6040519015158152602001610197565b34801561027a57600080fd5b5061028e6102893660046120ac565b61059c565b60405161019798979695949392919061210b565b61015a6102b03660046120ac565b6106a0565b3480156102c157600080fd5b506102ca6108f2565b6040516101979190612183565b3480156102e357600080fd5b5061015a6102f2366004612091565b6001600160a01b03166000908152600960205260409020805460ff19166001179055565b34801561032257600080fd5b506102ca610980565b34801561033757600080fd5b5061034b6103463660046120ac565b61098d565b6040516101979a99989796959493929190612196565b61015a61036f3660046120ac565b610ab0565b34801561038057600080fd5b5061015a610be7565b34801561039557600080fd5b506000546001600160a01b03165b6040516001600160a01b039091168152602001610197565b3480156103c757600080fd5b506101836103d6366004612203565b610c91565b3480156103e757600080fd5b506002546103a3906001600160a01b031681565b34801561040757600080fd5b5061041160035481565b604051908152602001610197565b34801561042b57600080fd5b5061015a61043a366004612091565b6001600160a01b03166000908152600860205260409020805460ff19166001179055565b34801561046a57600080fd5b506102ca610f4b565b34801561047f57600080fd5b5061041161048e36600461224f565b610f58565b34801561049f57600080fd5b5061025e6104ae366004612091565b60096020526000908152604090205460ff1681565b3480156104cf57600080fd5b5061015a6104de366004612091565b611079565b6104eb61108d565b600280546001600160401b03909216600160a01b0267ffffffffffffffff60a01b19909216919091179055565b336001600160a01b037f000000000000000000000000000000000000000000000000000000000000000016146105615760405163c6829f8360e01b815260040160405180910390fd5b61056c8383836110e2565b60405183907f85e1543bf2f84fe80c6badbce3648c8539ad1df4d2b3d822938ca0538be727e690600090a2505050565b6007602090815260009182526040918290208251808401845281546001600160a01b039081168252600183015482850152845180860190955260028301541684526003820154928401929092526004810180549293926105fb906122da565b80601f0160208091040260200160405190810160405280929190818152602001828054610627906122da565b80156106745780601f1061064957610100808354040283529160200191610674565b820191906000526020600020905b81548152906001019060200180831161065757829003601f168201915b505050600584015460068501546007860154600887015460099097015495969295919450925060ff1688565b60008181526007602052604090206002015481906001600160a01b031633146106e45760405162461bcd60e51b81526004016106db90612314565b60405180910390fd5b60008281526007602052604090206006810154806107445760405162461bcd60e51b815260206004820152601960248201527f4e6f2045544820617661696c61626c6520746f20636c61696d0000000000000060448201526064016106db565b600084815260076020526040902060050154610761906053612374565b60008581526007602081905260409091200154116107d85760405162461bcd60e51b815260206004820152602e60248201527f796f75206469646e74207472616e7366657220656e6f7567682066756e64732060448201526d3a37903cb7bab91039b2b63632b960911b60648201526084016106db565b600060068301819055848152600760205260408082205490516001600160a01b039091169083908381818185875af1925050503d8060008114610837576040519150601f19603f3d011682016040523d82523d6000602084013e61083c565b606091505b505090508061088d5760405162461bcd60e51b815260206004820152601e60248201527f4661696c656420746f2073656e6420457468657220746f2073656c6c6572000060448201526064016106db565b6000858152600760209081526040918290206002810154905483518981529283018690526001600160a01b03918216939116917fe1a0c1324c74af0f09ba89f1ed4681b67d9e8df76483770a7c1f861419b54797910160405180910390a35050505050565b600480546108ff906122da565b80601f016020809104026020016040519081016040528092919081815260200182805461092b906122da565b80156109785780601f1061094d57610100808354040283529160200191610978565b820191906000526020600020905b81548152906001019060200180831161095b57829003601f168201915b505050505081565b600580546108ff906122da565b6000818152600760208190526040822080546001820154600283015460038401546005850154600686015496860154600887015460098801546004890180548c9b8c9b8c9b60609b8d9b8c9b8c9b8c9b8c9b969a6001600160a01b039687169a95999490961697929694959194929390929160ff16908690610a0e906122da565b80601f0160208091040260200160405190810160405280929190818152602001828054610a3a906122da565b8015610a875780601f10610a5c57610100808354040283529160200191610a87565b820191906000526020600020905b815481529060010190602001808311610a6a57829003601f168201915b505050505095509a509a509a509a509a509a509a509a509a509a50509193959799509193959799565b60008181526007602052604090205481906001600160a01b0316331480610af057506000818152600760205260409020600201546001600160a01b031633145b610b475760405162461bcd60e51b815260206004820152602260248201527f4e6f7420617574686f72697a6564206f72207472616465206e6f742061677265604482015261195960f21b60648201526084016106db565b6000828152600760205260409020600601543414610bb35760405162461bcd60e51b815260206004820152602360248201527f496e636f72726563742045544820616d6f756e742073656e742062792073656c6044820152623632b960e91b60648201526084016106db565b600082815260076020526040902060060154610bce9061125c565b6000928352600760205260409092206005019190915550565b6001546001600160a01b03163314610c3a5760405162461bcd60e51b815260206004820152601660248201527526bab9ba10313290383937b837b9b2b21037bbb732b960511b60448201526064016106db565b60008054336001600160a01b0319808316821784556001805490911690556040516001600160a01b0390921692909183917f8be0079c531659141344cd1fd0a4f28419497f9722a3daafe3b4186f6b6457e091a350565b60008281526007602052604081206002015433906001600160a01b03808716911603610f2b5760408051600280825260608201909252600091816020015b6060815260200190600190039081610ccf57905050604080516001600160a01b03891660208201529192500160405160208183030381529060405281600081518110610d1d57610d1d61238b565b602002602001018190525081604051602001610d4891906001600160a01b0391909116815260200190565b60405160208183030381529060405281600181518110610d6a57610d6a61238b565b602002602001018190525060008683600760008981526020019081526020016000206006015487604051602001610da494939291906123a1565b60408051601f19818403018152610140830182526002546001600160401b03600160a01b82041684526000602085018190528484018190526060850181905230608086015260a0850181905260c0850181905260e0850181905261010085018790526101208501839052925163b82916cb60e01b81529194506001600160a01b03169063b82916cb90610e3b908590600401612461565b6020604051808303816000875af1158015610e5a573d6000803e3d6000fd5b505050506040513d601f19601f82011682018060405250810190610e7e9190612594565b6040516001600160401b03821681529091507fe65a4e50cc66413201ec77fa665f54961d549884769ca2325640e5932b92327f9060200160405180910390a16000888152600760208181526040808420600981018054600160ff19909116811790915582518084019093523383526006820154838501908152958e9052939092525181546001600160a01b0319166001600160a01b0390911617815591519101559450610f449350505050565b60405163e481626b60e01b815260040160405180910390fd5b9392505050565b600680546108ff906122da565b60008481526007602052604081206002015485906001600160a01b03163314610f935760405162461bcd60e51b81526004016106db90612314565b610fd46040805160e0810190915280600081526020016000815260200160008152602001606081526020016060815260200160608152602001606081525090565b610ffa6040518061034001604052806103108152602001612a4561031091398290611373565b83156110145761101461100d85876125b1565b8290611384565b611044611020826113ae565b87620493e07566756e2d617262697472756d2d7365706f6c69612d3160501b611686565b60038181556000918252600a602090815260408084208b90559154998352600790529020600801879055509495945050505050565b61108161108d565b61108a81611758565b50565b6000546001600160a01b031633146110e05760405162461bcd60e51b815260206004820152601660248201527527b7363c9031b0b63630b1363290313c9037bbb732b960511b60448201526064016106db565b565b82600354146111075760405163d068bf5b60e01b8152600481018490526024016106db565b6000838152600a602090815260408083205480845260079092529091206004016111318482612696565b50600081815260076020526040902060040180546111d69190611153906122da565b80601f016020809104026020016040519081016040528092919081815260200182805461117f906122da565b80156111cc5780601f106111a1576101008083540402835291602001916111cc565b820191906000526020600020905b8154815290600101906020018083116111af57829003601f168201915b5050505050611801565b6000828152600760208190526040909120015560046111f58482612696565b5060056112028382612696565b50837f160ed0aaffbef6885155188b91459cb5a97d5daadccf7561d8c46deea6641b50600760008481526020019081526020016000206004016004600560405161124e939291906127d2565b60405180910390a250505050565b60008073d30e2101a97dcbaebcbc04f14c3f624e67a3516590506000816001600160a01b031663feaf968c6040518163ffffffff1660e01b815260040160a060405180830381865afa1580156112b6573d6000803e3d6000fd5b505050506040513d601f19601f820116820180604052508101906112da9190612825565b505050915050600081136113305760405162461bcd60e51b815260206004820152601960248201527f496e76616c69642070726963652066726f6d206f7261636c650000000000000060448201526064016106db565b6000611341826402540be400612374565b905060006ec097ce7bc90715b34b9f100000000061135f8388612374565b611369919061288b565b9695505050505050565b6113808260008084611913565b5050565b80516000036113a65760405163fe936cb760e01b815260040160405180910390fd5b60a090910152565b606060006113bd610100611991565b90506113f66040518060400160405280600c81526020016b31b7b232a637b1b0ba34b7b760a11b815250826119b290919063ffffffff16565b825161141490600281111561140d5761140d6123d4565b82906119d0565b6040805180820190915260088152676c616e677561676560c01b602082015261143e9082906119b2565b604083015161145590801561140d5761140d6123d4565b604080518082019091526006815265736f7572636560d01b602082015261147d9082906119b2565b606083015161148d9082906119b2565b60a08301515115611521576040805180820190915260048152636172677360e01b60208201526114be9082906119b2565b6114c781611a09565b60005b8360a0015151811015611517576115078460a0015182815181106114f0576114f061238b565b6020026020010151836119b290919063ffffffff16565b6115108161289f565b90506114ca565b5061152181611a2d565b608083015151156115e557600083602001516002811115611544576115446123d4565b036115625760405163a80d31f760e01b815260040160405180910390fd5b60408051808201909152600f81526e39b2b1b932ba39a637b1b0ba34b7b760891b60208201526115939082906119b2565b6115ac8360200151600281111561140d5761140d6123d4565b6040805180820190915260078152667365637265747360c81b60208201526115d59082906119b2565b60808301516115e5908290611a4b565b60c0830151511561167e5760408051808201909152600981526862797465734172677360b81b602082015261161b9082906119b2565b61162481611a09565b60005b8360c0015151811015611674576116648460c00151828151811061164d5761164d61238b565b602002602001015183611a4b90919063ffffffff16565b61166d8161289f565b9050611627565b5061167e81611a2d565b515192915050565b6000807f00000000000000000000000000000000000000000000000000000000000000006001600160a01b031663461d27628688600188886040518663ffffffff1660e01b81526004016116de9594939291906128b8565b6020604051808303816000875af11580156116fd573d6000803e3d6000fd5b505050506040513d601f19601f820116820180604052508101906117219190612901565b60405190915081907f1131472297a800fee664d1d89cfa8f7676ff07189ecc53f80bbb5f4969099db890600090a295945050505050565b336001600160a01b038216036117b05760405162461bcd60e51b815260206004820152601760248201527f43616e6e6f74207472616e7366657220746f2073656c6600000000000000000060448201526064016106db565b600180546001600160a01b0319166001600160a01b0383811691821790925560008054604051929316917fed8889f560326eb138920d842192f0eb3dd22b4f139c87a2c57538e05bae12789190a350565b60008181805b8251811015611855578281815181106118225761182261238b565b01602001516001600160f81b031916601d60f91b0361184357809150611855565b8061184d8161289f565b915050611807565b506000816001600160401b0381111561187057611870611f2a565b6040519080825280601f01601f19166020018201604052801561189a576020820181803683370190505b50905060005b82811015611900578381815181106118ba576118ba61238b565b602001015160f81c60f81b8282815181106118d7576118d761238b565b60200101906001600160f81b031916908160001a905350806118f88161289f565b9150506118a0565b5061190a81611a58565b95945050505050565b8051600003611935576040516322ce3edd60e01b815260040160405180910390fd5b83836002811115611948576119486123d4565b9081600281111561195b5761195b6123d4565b90525060408401828015611971576119716123d4565b90818015611981576119816123d4565b9052506060909301929092525050565b611999611ec3565b80516119a59083611b1c565b5060006020820152919050565b6119bf8260038351611b96565b81516119cb9082611cb5565b505050565b81516119dd9060c2611cd6565b5061138082826040516020016119f591815260200190565b604051602081830303815290604052611a4b565b611a14816004611d3f565b600181602001818151611a27919061291a565b90525050565b611a38816007611d3f565b600181602001818151611a27919061292d565b6119bf8260028351611b96565b60008181805b8251811015611b1457603060f81b838281518110611a7e57611a7e61238b565b01602001516001600160f81b03191610801590611abf5750603960f81b838281518110611aad57611aad61238b565b01602001516001600160f81b03191611155b15611b02576030838281518110611ad857611ad861238b565b0160200151611aea919060f81c61292d565b611af583600a612374565b611aff919061291a565b91505b80611b0c8161289f565b915050611a5e565b509392505050565b604080518082019091526060815260006020820152611b3c602083612940565b15611b6457611b4c602083612940565b611b5790602061292d565b611b61908361291a565b91505b602080840183905260405180855260008152908184010181811015611b8857600080fd5b604052508290505b92915050565b6017816001600160401b031611611bc2578251611bbc9060e0600585901b168317611cd6565b50505050565b60ff816001600160401b031611611c02578251611bea906018611fe0600586901b1617611cd6565b508251611bbc906001600160401b0383166001611d56565b61ffff816001600160401b031611611c43578251611c2b906019611fe0600586901b1617611cd6565b508251611bbc906001600160401b0383166002611d56565b63ffffffff816001600160401b031611611c86578251611c6e90601a611fe0600586901b1617611cd6565b508251611bbc906001600160401b0383166004611d56565b8251611c9d90601b611fe0600586901b1617611cd6565b508251611bbc906001600160401b0383166008611d56565b604080518082019091526060815260006020820152610f4483838451611ddb565b6040805180820190915260608152600060208201528251516000611cfb82600161291a565b905084602001518210611d1c57611d1c85611d17836002612374565b611eac565b8451602083820101858153508051821115611d35578181525b5093949350505050565b81516119cb90601f611fe0600585901b1617611cd6565b6040805180820190915260608152600060208201528351516000611d7a828561291a565b90508560200151811115611d9757611d9786611d17836002612374565b60006001611da786610100612a38565b611db1919061292d565b90508651828101878319825116178152508051831115611dcf578281525b50959695505050505050565b6040805180820190915260608152600060208201528251821115611dfe57600080fd5b8351516000611e0d848361291a565b90508560200151811115611e2a57611e2a86611d17836002612374565b855180518382016020019160009180851115611e44578482525b505050602086015b60208610611e845780518252611e6360208361291a565b9150611e7060208261291a565b9050611e7d60208761292d565b9550611e4c565b51815160001960208890036101000a0190811690199190911617905250849150509392505050565b8151611eb88383611b1c565b50611bbc8382611cb5565b6040518060400160405280611eeb604051806040016040528060608152602001600081525090565b8152602001600081525090565b6001600160401b038116811461108a57600080fd5b600060208284031215611f1f57600080fd5b8135610f4481611ef8565b634e487b7160e01b600052604160045260246000fd5b604051601f8201601f191681016001600160401b0381118282101715611f6857611f68611f2a565b604052919050565b60006001600160401b03831115611f8957611f89611f2a565b611f9c601f8401601f1916602001611f40565b9050828152838383011115611fb057600080fd5b828260208301376000602084830101529392505050565b600082601f830112611fd857600080fd5b610f4483833560208501611f70565b600080600060608486031215611ffc57600080fd5b8335925060208401356001600160401b038082111561201a57600080fd5b61202687838801611fc7565b9350604086013591508082111561203c57600080fd5b5061204986828701611fc7565b9150509250925092565b6000806040838503121561206657600080fd5b50508035926020909101359150565b80356001600160a01b038116811461208c57600080fd5b919050565b6000602082840312156120a357600080fd5b610f4482612075565b6000602082840312156120be57600080fd5b5035919050565b6000815180845260005b818110156120eb576020818501810151868301820152016120cf565b506000602082860101526020601f19601f83011685010191505092915050565b88516001600160a01b031681526020808a015190820152600061014089516001600160a01b0316604084015260208a015160608401528060808401526121538184018a6120c5565b60a0840198909852505060c081019490945260e08401929092526101008301521515610120909101529392505050565b602081526000610f4460208301846120c5565b6001600160a01b038b81168252602082018b90528916604082015260608101889052610140608082018190526000906121d18382018a6120c5565b60a0840198909852505060c081019490945260e084019290925261010083015215156101209091015295945050505050565b60008060006060848603121561221857600080fd5b61222184612075565b92506020840135915060408401356001600160401b0381111561224357600080fd5b61204986828701611fc7565b6000806000806060858703121561226557600080fd5b84359350602085013561227781611ef8565b925060408501356001600160401b038082111561229357600080fd5b818701915087601f8301126122a757600080fd5b8135818111156122b657600080fd5b8860208260051b85010111156122cb57600080fd5b95989497505060200194505050565b600181811c908216806122ee57607f821691505b60208210810361230e57634e487b7160e01b600052602260045260246000fd5b50919050565b6020808252602a908201527f796f7520617265206e6f742074686520617574686f72697a65642073656c6c656040820152697220746f20636c61696d60b01b606082015260800190565b634e487b7160e01b600052601160045260246000fd5b8082028115828204841417611b9057611b9061235e565b634e487b7160e01b600052603260045260246000fd5b6001600160a01b0385811682528416602082015260408101839052608060608201819052600090611369908301846120c5565b634e487b7160e01b600052602160045260246000fd5b6004811061240857634e487b7160e01b600052602160045260246000fd5b9052565b600081518084526020808501808196508360051b8101915082860160005b858110156124545782840389526124428483516120c5565b9885019893509084019060010161242a565b5091979650505050505050565b6080815261247b6080820183516001600160401b03169052565b6000602083015161249760a08401826001600160401b03169052565b5060408301516001600160401b0390811660c084015260608401511660e083015260808301516001600160a01b0381166101008085019190915260a085015191506101206124ef818601846001600160401b03169052565b60c08601519250610140612505818701856123ea565b60e0870151151561016087015282870151610180870191909152925061252f6101c086018461240c565b90860151858203607f19016101a0870152909250905061254f82826120c5565b9150508281036020840152612568816000815260200190565b838103604085015260008152905060208101838103606085015260008152905060208101949350505050565b6000602082840312156125a657600080fd5b8151610f4481611ef8565b60006001600160401b03808411156125cb576125cb611f2a565b8360051b60206125dc818301611f40565b8681529185019181810190368411156125f457600080fd5b865b8481101561263c5780358681111561260e5760008081fd5b880136601f8201126126205760008081fd5b61262e368235878401611f70565b8452509183019183016125f6565b50979650505050505050565b601f8211156119cb57600081815260208120601f850160051c8101602086101561266f5750805b601f850160051c820191505b8181101561268e5782815560010161267b565b505050505050565b81516001600160401b038111156126af576126af611f2a565b6126c3816126bd84546122da565b84612648565b602080601f8311600181146126f857600084156126e05750858301515b600019600386901b1c1916600185901b17855561268e565b600085815260208120601f198616915b8281101561272757888601518255948401946001909101908401612708565b50858210156127455787850151600019600388901b60f8161c191681555b5050505050600190811b01905550565b60008154612762816122da565b80855260206001838116801561277f5760018114612799576127c7565b60ff1985168884015283151560051b8801830195506127c7565b866000528260002060005b858110156127bf5781548a82018601529083019084016127a4565b890184019650505b505050505092915050565b6060815260006127e56060830186612755565b82810360208401526127f78186612755565b905082810360408401526113698185612755565b805169ffffffffffffffffffff8116811461208c57600080fd5b600080600080600060a0868803121561283d57600080fd5b6128468661280b565b94506020860151935060408601519250606086015191506128696080870161280b565b90509295509295909350565b634e487b7160e01b600052601260045260246000fd5b60008261289a5761289a612875565b500490565b6000600182016128b1576128b161235e565b5060010190565b6001600160401b038616815260a0602082015260006128da60a08301876120c5565b61ffff9590951660408301525063ffffffff92909216606083015260809091015292915050565b60006020828403121561291357600080fd5b5051919050565b80820180821115611b9057611b9061235e565b81810381811115611b9057611b9061235e565b60008261294f5761294f612875565b500690565b600181815b8085111561298f5781600019048211156129755761297561235e565b8085161561298257918102915b93841c9390800290612959565b509250929050565b6000826129a657506001611b90565b816129b357506000611b90565b81600181146129c957600281146129d3576129ef565b6001915050611b90565b60ff8411156129e4576129e461235e565b50506001821b611b90565b5060208310610133831016604e8410600b8410161715612a12575081810a611b90565b612a1c8383612954565b8060001904821115612a3057612a3061235e565b029392505050565b6000610f44838361299756fe636f6e7374206368617261637465724964203d20617267735b305d3b636f6e737420636861726163746572496432203d20617267735b315d3b636f6e737420617069526573706f6e7365203d2061776169742046756e6374696f6e732e6d616b654874747052657175657374287b75726c3a206068747470733a2f2f676d61696c2e676f6f676c65617069732e636f6d2f676d61696c2f76312f75736572732f6d652f6d657373616765732f247b63686172616374657249647d2f602c20686561646572733a207b20417574686f72697a6174696f6e3a206042656172657220247b6368617261637465724964327d607d7d293b69662028617069526573706f6e73652e6572726f7229207b72657475726e2046756e6374696f6e732e656e636f6465537472696e6728274572726f723a2027202b20617069526573706f6e73652e6572726f722e6d657373616765293b7d636f6e7374207b2064617461207d203d20617069526573706f6e73653b636f6e737420736e6970706574203d20646174612e736e69707065743b636f6e737420616d6f756e745265676578203d202f283f3a5c75323042395c733f7c5061696420746f5c733f5c772b5c733f5c772b5c733f5c75323042395c733f29285c642b292f3b636f6e73742074786e49645265676578203d202f54786e5c2e5c733f49445c733f3a5c733f285c772b292f3b636f6e737420616d6f756e744d61746368203d20736e69707065742e6d6174636828616d6f756e745265676578293b636f6e737420616d6f756e74203d20616d6f756e744d61746368203f20616d6f756e744d617463685b315d203a2027416d6f756e74206e6f7420666f756e64273b636f6e73742074786e49644d61746368203d20736e69707065742e6d617463682874786e49645265676578293b636f6e73742074786e4964203d2074786e49644d61746368203f2074786e49644d617463685b315d203a202754786e204944206e6f7420666f756e64273b72657475726e2046756e6374696f6e732e656e636f6465537472696e6728616d6f756e74202b20273a27202b2074786e4964293ba2646970667358221220116a4b0c8acaddb67dbc752b43627577e69e2b95ce54518caebf10abbf88570c64736f6c63430008140033",
  "devdoc": {
    "kind": "dev",
    "methods": {
      "handleOracleFulfillment(bytes32,bytes,bytes)": {
        "details": "Either response or error parameter will be set, but never both.",
        "params": {
          "err": "Aggregated error either from the request's source code or from the execution pipeline.",
          "requestId": "The requestId returned by FunctionsClient.sendRequest().",
          "response": "Aggregated response from the request's source code."
        }
      }
    },
    "version": 1
  },
  "userdoc": {
    "kind": "user",
    "methods": {
      "acceptOwnership()": {
        "notice": "Allows an ownership transfer to be completed by the recipient."
      },
      "handleOracleFulfillment(bytes32,bytes,bytes)": {
        "notice": "Chainlink Functions response handler called by the Functions Router during fullilment from the designated transmitter node in an OCR round."
      },
      "owner()": {
        "notice": "Get the current owner"
      },
      "transferOwnership(address)": {
        "notice": "Allows an owner to begin transferring ownership to a new address."
      }
    },
    "version": 1
  },
  "storageLayout": {
    "storage": [
      {
        "astId": 862,
        "contract": "contracts/offRampBased.sol:offRampBased",
        "label": "s_owner",
        "offset": 0,
        "slot": "0",
        "type": "t_address"
      },
      {
        "astId": 864,
        "contract": "contracts/offRampBased.sol:offRampBased",
        "label": "s_pendingOwner",
        "offset": 0,
        "slot": "1",
        "type": "t_address"
      },
      {
        "astId": 3232,
        "contract": "contracts/offRampBased.sol:offRampBased",
        "label": "spInstance",
        "offset": 0,
        "slot": "2",
        "type": "t_contract(ISP)2809"
      },
      {
        "astId": 3234,
        "contract": "contracts/offRampBased.sol:offRampBased",
        "label": "schemaId",
        "offset": 20,
        "slot": "2",
        "type": "t_uint64"
      },
      {
        "astId": 3236,
        "contract": "contracts/offRampBased.sol:offRampBased",
        "label": "s_lastRequestId",
        "offset": 0,
        "slot": "3",
        "type": "t_bytes32"
      },
      {
        "astId": 3238,
        "contract": "contracts/offRampBased.sol:offRampBased",
        "label": "s_lastResponse",
        "offset": 0,
        "slot": "4",
        "type": "t_bytes_storage"
      },
      {
        "astId": 3240,
        "contract": "contracts/offRampBased.sol:offRampBased",
        "label": "s_lastError",
        "offset": 0,
        "slot": "5",
        "type": "t_bytes_storage"
      },
      {
        "astId": 3242,
        "contract": "contracts/offRampBased.sol:offRampBased",
        "label": "characters",
        "offset": 0,
        "slot": "6",
        "type": "t_string_storage"
      },
      {
        "astId": 3265,
        "contract": "contracts/offRampBased.sol:offRampBased",
        "label": "trades",
        "offset": 0,
        "slot": "7",
        "type": "t_mapping(t_uint256,t_struct(Trade)3301_storage)"
      },
      {
        "astId": 3269,
        "contract": "contracts/offRampBased.sol:offRampBased",
        "label": "isMerchant",
        "offset": 0,
        "slot": "8",
        "type": "t_mapping(t_address,t_bool)"
      },
      {
        "astId": 3273,
        "contract": "contracts/offRampBased.sol:offRampBased",
        "label": "isSeller",
        "offset": 0,
        "slot": "9",
        "type": "t_mapping(t_address,t_bool)"
      },
      {
        "astId": 3277,
        "contract": "contracts/offRampBased.sol:offRampBased",
        "label": "requestIdToTradeId",
        "offset": 0,
        "slot": "10",
        "type": "t_mapping(t_bytes32,t_uint256)"
      }
    ],
    "types": {
      "t_address": {
        "encoding": "inplace",
        "label": "address",
        "numberOfBytes": "20"
      },
      "t_bool": {
        "encoding": "inplace",
        "label": "bool",
        "numberOfBytes": "1"
      },
      "t_bytes32": {
        "encoding": "inplace",
        "label": "bytes32",
        "numberOfBytes": "32"
      },
      "t_bytes_storage": {
        "encoding": "bytes",
        "label": "bytes",
        "numberOfBytes": "32"
      },
      "t_contract(ISP)2809": {
        "encoding": "inplace",
        "label": "contract ISP",
        "numberOfBytes": "20"
      },
      "t_mapping(t_address,t_bool)": {
        "encoding": "mapping",
        "key": "t_address",
        "label": "mapping(address => bool)",
        "numberOfBytes": "32",
        "value": "t_bool"
      },
      "t_mapping(t_bytes32,t_uint256)": {
        "encoding": "mapping",
        "key": "t_bytes32",
        "label": "mapping(bytes32 => uint256)",
        "numberOfBytes": "32",
        "value": "t_uint256"
      },
      "t_mapping(t_uint256,t_struct(Trade)3301_storage)": {
        "encoding": "mapping",
        "key": "t_uint256",
        "label": "mapping(uint256 => struct offRampBased.Trade)",
        "numberOfBytes": "32",
        "value": "t_struct(Trade)3301_storage"
      },
      "t_string_storage": {
        "encoding": "bytes",
        "label": "string",
        "numberOfBytes": "32"
      },
      "t_struct(Merchant)3282_storage": {
        "encoding": "inplace",
        "label": "struct offRampBased.Merchant",
        "members": [
          {
            "astId": 3279,
            "contract": "contracts/offRampBased.sol:offRampBased",
            "label": "addr",
            "offset": 0,
            "slot": "0",
            "type": "t_address"
          },
          {
            "astId": 3281,
            "contract": "contracts/offRampBased.sol:offRampBased",
            "label": "cryptoLock",
            "offset": 0,
            "slot": "1",
            "type": "t_uint256"
          }
        ],
        "numberOfBytes": "64"
      },
      "t_struct(Trade)3301_storage": {
        "encoding": "inplace",
        "label": "struct offRampBased.Trade",
        "members": [
          {
            "astId": 3285,
            "contract": "contracts/offRampBased.sol:offRampBased",
            "label": "buyer",
            "offset": 0,
            "slot": "0",
            "type": "t_struct(Merchant)3282_storage"
          },
          {
            "astId": 3288,
            "contract": "contracts/offRampBased.sol:offRampBased",
            "label": "seller",
            "offset": 0,
            "slot": "2",
            "type": "t_struct(Merchant)3282_storage"
          },
          {
            "astId": 3290,
            "contract": "contracts/offRampBased.sol:offRampBased",
            "label": "Trx_Money",
            "offset": 0,
            "slot": "4",
            "type": "t_string_storage"
          },
          {
            "astId": 3292,
            "contract": "contracts/offRampBased.sol:offRampBased",
            "label": "InrAmount",
            "offset": 0,
            "slot": "5",
            "type": "t_uint256"
          },
          {
            "astId": 3294,
            "contract": "contracts/offRampBased.sol:offRampBased",
            "label": "EthLock",
            "offset": 0,
            "slot": "6",
            "type": "t_uint256"
          },
          {
            "astId": 3296,
            "contract": "contracts/offRampBased.sol:offRampBased",
            "label": "INR_Paid_to_Seller",
            "offset": 0,
            "slot": "7",
            "type": "t_uint256"
          },
          {
            "astId": 3298,
            "contract": "contracts/offRampBased.sol:offRampBased",
            "label": "s_lastRequestId",
            "offset": 0,
            "slot": "8",
            "type": "t_bytes32"
          },
          {
            "astId": 3300,
            "contract": "contracts/offRampBased.sol:offRampBased",
            "label": "agreed",
            "offset": 0,
            "slot": "9",
            "type": "t_bool"
          }
        ],
        "numberOfBytes": "320"
      },
      "t_uint256": {
        "encoding": "inplace",
        "label": "uint256",
        "numberOfBytes": "32"
      },
      "t_uint64": {
        "encoding": "inplace",
        "label": "uint64",
        "numberOfBytes": "8"
      }
    }
  }
}