{
  "address": "0x3662f3a98ee939673b04DF3D9Ac44859fAF7F80b",
  "abi": [
    {
      "inputs": [],
      "stateMutability": "nonpayable",
      "type": "constructor"
    },
    {
      "inputs": [],
      "name": "ConfirmationAddressMismatch",
      "type": "error"
    },
    {
      "anonymous": false,
      "inputs": [
        {
          "indexed": true,
          "internalType": "uint256",
          "name": "tradeId",
          "type": "uint256"
        },
        {
          "indexed": true,
          "internalType": "address",
          "name": "seller",
          "type": "address"
        },
        {
          "indexed": false,
          "internalType": "uint256",
          "name": "tradeETH",
          "type": "uint256"
        }
      ],
      "name": "DoubleDeposit",
      "type": "event"
    },
    {
      "anonymous": false,
      "inputs": [
        {
          "indexed": true,
          "internalType": "address",
          "name": "seller",
          "type": "address"
        },
        {
          "indexed": true,
          "internalType": "address",
          "name": "buyer",
          "type": "address"
        },
        {
          "indexed": false,
          "internalType": "uint256",
          "name": "tradeId",
          "type": "uint256"
        },
        {
          "indexed": false,
          "internalType": "uint256",
          "name": "amountClaimed",
          "type": "uint256"
        }
      ],
      "name": "EthClaimed",
      "type": "event"
    },
    {
      "inputs": [
        {
          "internalType": "uint256",
          "name": "tradeId",
          "type": "uint256"
        }
      ],
      "name": "ClaimByBuyer",
      "outputs": [],
      "stateMutability": "nonpayable",
      "type": "function"
    },
    {
      "inputs": [
        {
          "internalType": "uint256",
          "name": "tradeId",
          "type": "uint256"
        },
        {
          "internalType": "bytes32",
          "name": "txnId",
          "type": "bytes32"
        }
      ],
      "name": "confirmBySeller",
      "outputs": [],
      "stateMutability": "nonpayable",
      "type": "function"
    },
    {
      "inputs": [
        {
          "internalType": "address",
          "name": "sellerAddress",
          "type": "address"
        },
        {
          "internalType": "uint256",
          "name": "tradeId",
          "type": "uint256"
        },
        {
          "internalType": "bytes",
          "name": "_data",
          "type": "bytes"
        }
      ],
      "name": "confirmOffRamp",
      "outputs": [
        {
          "internalType": "uint64",
          "name": "",
          "type": "uint64"
        }
      ],
      "stateMutability": "nonpayable",
      "type": "function"
    },
    {
      "inputs": [
        {
          "internalType": "uint256",
          "name": "tradeId",
          "type": "uint256"
        },
        {
          "internalType": "uint256",
          "name": "tradeETH",
          "type": "uint256"
        }
      ],
      "name": "doubleDeposit",
      "outputs": [],
      "stateMutability": "nonpayable",
      "type": "function"
    },
    {
      "inputs": [
        {
          "internalType": "address",
          "name": "",
          "type": "address"
        }
      ],
      "name": "isMerchant",
      "outputs": [
        {
          "internalType": "bool",
          "name": "",
          "type": "bool"
        }
      ],
      "stateMutability": "view",
      "type": "function"
    },
    {
      "inputs": [
        {
          "internalType": "address",
          "name": "",
          "type": "address"
        }
      ],
      "name": "isSeller",
      "outputs": [
        {
          "internalType": "bool",
          "name": "",
          "type": "bool"
        }
      ],
      "stateMutability": "view",
      "type": "function"
    },
    {
      "inputs": [],
      "name": "schemaId",
      "outputs": [
        {
          "internalType": "uint64",
          "name": "",
          "type": "uint64"
        }
      ],
      "stateMutability": "view",
      "type": "function"
    },
    {
      "inputs": [
        {
          "internalType": "uint256",
          "name": "tradeId",
          "type": "uint256"
        },
        {
          "internalType": "uint256",
          "name": "amountPaid",
          "type": "uint256"
        }
      ],
      "name": "sendVerifyByBuyer",
      "outputs": [],
      "stateMutability": "nonpayable",
      "type": "function"
    },
    {
      "inputs": [],
      "name": "spInstance",
      "outputs": [
        {
          "internalType": "contract ISP",
          "name": "",
          "type": "address"
        }
      ],
      "stateMutability": "view",
      "type": "function"
    },
    {
      "inputs": [
        {
          "internalType": "uint256",
          "name": "tradeId",
          "type": "uint256"
        }
      ],
      "name": "startRound",
      "outputs": [],
      "stateMutability": "payable",
      "type": "function"
    },
    {
      "inputs": [
        {
          "internalType": "uint256",
          "name": "",
          "type": "uint256"
        }
      ],
      "name": "trades",
      "outputs": [
        {
          "components": [
            {
              "internalType": "address",
              "name": "addr",
              "type": "address"
            },
            {
              "internalType": "uint256",
              "name": "cryptoLock",
              "type": "uint256"
            }
          ],
          "internalType": "struct offRampBased.Merchant",
          "name": "buyer",
          "type": "tuple"
        },
        {
          "components": [
            {
              "internalType": "address",
              "name": "addr",
              "type": "address"
            },
            {
              "internalType": "uint256",
              "name": "cryptoLock",
              "type": "uint256"
            }
          ],
          "internalType": "struct offRampBased.Merchant",
          "name": "seller",
          "type": "tuple"
        },
        {
          "internalType": "string",
          "name": "Trx_Money",
          "type": "string"
        },
        {
          "internalType": "uint256",
          "name": "InrAmount",
          "type": "uint256"
        },
        {
          "internalType": "uint256",
          "name": "extraEth",
          "type": "uint256"
        },
        {
          "internalType": "uint256",
          "name": "EthLock",
          "type": "uint256"
        },
        {
          "internalType": "bool",
          "name": "agreed",
          "type": "bool"
        },
        {
          "internalType": "bool",
          "name": "Paid",
          "type": "bool"
        },
        {
          "internalType": "uint256",
          "name": "remaningEth",
          "type": "uint256"
        },
        {
          "internalType": "bool",
          "name": "dealDone",
          "type": "bool"
        }
      ],
      "stateMutability": "view",
      "type": "function"
    }
  ],
  "transactionHash": "0xa2d57b8a11350f84f1ac78bfb0763f30b6dc96e7f2cb2d20267df549e88a68e3",
  "args": [],
  "numDeployments": 5,
  "solcInputHash": "ec408d62412da3108684bdc93b75f4af",
  "bytecode": "0x6080604052600080546001600160e01b03191674f44e4af2a21ebf62850fd99eb6253e1efbb56098cd17905534801561003757600080fd5b50611015806100476000396000f3fe60806040526004361061009c5760003560e01c80635cffa76f116100645780635cffa76f1461019f5780635fc3d52d146101bf578063708d8372146101d25780639fc17088146101f2578063a8c5dc3314610212578063ee95feaf1461024a57600080fd5b806301e9502a146100a1578063075b1a09146100c35780631a2f7167146101095780631e6c598e146101495780632c927c7d1461017f575b600080fd5b3480156100ad57600080fd5b506100c16100bc366004610a90565b61027a565b005b3480156100cf57600080fd5b506000546100eb90600160a01b900467ffffffffffffffff1681565b60405167ffffffffffffffff90911681526020015b60405180910390f35b34801561011557600080fd5b50610139610124366004610ac5565b60026020526000908152604090205460ff1681565b6040519015158152602001610100565b34801561015557600080fd5b50610169610164366004610a90565b61032d565b6040516101009a99989796959493929190610b26565b34801561018b57600080fd5b506100c161019a366004610baf565b610445565b3480156101ab57600080fd5b506100c16101ba366004610baf565b6104e9565b6100c16101cd366004610a90565b61056d565b3480156101de57600080fd5b506100c16101ed366004610baf565b610641565b3480156101fe57600080fd5b506100eb61020d366004610be7565b6106f7565b34801561021e57600080fd5b50600054610232906001600160a01b031681565b6040516001600160a01b039091168152602001610100565b34801561025657600080fd5b50610139610265366004610ac5565b60036020526000908152604090205460ff1681565b6000818152600160205260409020600a015460ff166102ec5760405162461bcd60e51b815260206004820152602360248201527f73656c6c6572206469646e7420656e74657265642f696e76616c6964206f75746044820152621c1d5d60ea1b60648201526084015b60405180910390fd5b600081815260016020526040808220600901549051339282156108fc02929190818181858888f19350505050158015610329573d6000803e3d6000fd5b5050565b6001602081815260009283526040928390208351808501855281546001600160a01b039081168252938201548184015284518086019095526002820154909316845260038101549184019190915260048101805492939261038d90610cb2565b80601f01602080910402602001604051908101604052809291908181526020018280546103b990610cb2565b80156104065780601f106103db57610100808354040283529160200191610406565b820191906000526020600020905b8154815290600101906020018083116103e957829003601f168201915b50505060058401546006850154600786015460088701546009880154600a909801549697939692955090935060ff80821693610100909204811692168a565b60008281526001602052604081206007015461046090610979565b8210156104c75760405162461bcd60e51b815260206004820152602f60248201527f416d6f756e74206d757374206265206d6f7265207468616e206f72206571756160448201526e1b081d1bc812539488105b5bdd5b9d608a1b60648201526084016102e3565b50506000908152600160205260409020600801805461ff001916610100179055565b60408051808201825233808252602080830185815260008781526001835285902093516002850180546001600160a01b0319166001600160a01b0390921691909117905551600390930192909255915183815284917f79cb74369f9a8fb0e988943a7da5ff39f09c312f56d1c5e03f2eb03deddd51bc910160405180910390a35050565b6000818152600160205260408120600701549061058b826002610d02565b905080341461061d5760405162461bcd60e51b815260206004820152605260248201527f496e636f72726563742045544820616d6f756e742073656e742062792073656c60448201527f6c657220696e746f20636f6e74726163742c206d75737420626520646f75626c6064820152710ca40e8d0ca40e4cae2ead2e4cac8408aa8960731b608482015260a4016102e3565b6106278282610d1f565b600093845260016020526040909320600601929092555050565b60008281526001602052604081206007015461065f90600290610d32565b9050600081116106bd5760405162461bcd60e51b815260206004820152602360248201527f5b4572726f725d3a204e6f2073756666696369656e742045544820746f20636c60448201526261696d60e81b60648201526084016102e3565b604051339082156108fc029083906000818181858888f193505050501580156106ea573d6000803e3d6000fd5b5050506000526001602052565b60008281526001602052604081206002015433906001600160a01b038087169116036109595760408051600280825260608201909252600091816020015b606081526020019060019003908161073557905050604080516001600160a01b0389166020820152919250016040516020818303038152906040528160008151811061078357610783610d54565b6020026020010181905250816040516020016107ae91906001600160a01b0391909116815260200190565b604051602081830303815290604052816001815181106107d0576107d0610d54565b60200260200101819052506000868360016000898152602001908152602001600020600201600101548760405160200161080d9493929190610d6a565b60408051601f19818403018152610140830182526000805467ffffffffffffffff600160a01b8204168552602085018290528484018290526060850182905230608086015260a0850182905260c0850182905260e0850182905261010085018790526101208501839052925163b82916cb60e01b8152919450916001600160a01b03169063b82916cb906108a5908590600401610e14565b6020604051808303816000875af11580156108c4573d6000803e3d6000fd5b505050506040513d601f19601f820116820180604052508101906108e89190610f4b565b600089815260016020818152604080842060088101805460ff1916851790556003810154600782018190558251808401909352338352828401908152948e9052918390525181546001600160a01b0319166001600160a01b0390911617815591519101559550610972945050505050565b60405163e481626b60e01b815260040160405180910390fd5b9392505050565b600080734adc67696ba383f43dd60a9e78f2c97fbbfc7cb190506000816001600160a01b031663feaf968c6040518163ffffffff1660e01b815260040160a060405180830381865afa1580156109d3573d6000803e3d6000fd5b505050506040513d601f19601f820116820180604052508101906109f79190610f8f565b50505091505060008113610a4d5760405162461bcd60e51b815260206004820152601960248201527f496e76616c69642070726963652066726f6d206f7261636c650000000000000060448201526064016102e3565b6000610a5e826402540be400610d02565b905060006ec097ce7bc90715b34b9f1000000000610a7c8388610d02565b610a869190610d32565b9695505050505050565b600060208284031215610aa257600080fd5b5035919050565b80356001600160a01b0381168114610ac057600080fd5b919050565b600060208284031215610ad757600080fd5b61097282610aa9565b6000815180845260005b81811015610b0657602081850181015186830182015201610aea565b506000602082860101526020601f19601f83011685010191505092915050565b8a516001600160a01b031681526020808c01519082015260006101808b516001600160a01b0316604084015260208c01516060840152806080840152610b6e8184018c610ae0565b60a084019a909a52505060c081019690965260e086019490945291151561010085015215156101208401526101408301521515610160909101529392505050565b60008060408385031215610bc257600080fd5b50508035926020909101359150565b634e487b7160e01b600052604160045260246000fd5b600080600060608486031215610bfc57600080fd5b610c0584610aa9565b925060208401359150604084013567ffffffffffffffff80821115610c2957600080fd5b818601915086601f830112610c3d57600080fd5b813581811115610c4f57610c4f610bd1565b604051601f8201601f19908116603f01168101908382118183101715610c7757610c77610bd1565b81604052828152896020848701011115610c9057600080fd5b8260208601602083013760006020848301015280955050505050509250925092565b600181811c90821680610cc657607f821691505b602082108103610ce657634e487b7160e01b600052602260045260246000fd5b50919050565b634e487b7160e01b600052601160045260246000fd5b8082028115828204841417610d1957610d19610cec565b92915050565b81810381811115610d1957610d19610cec565b600082610d4f57634e487b7160e01b600052601260045260246000fd5b500490565b634e487b7160e01b600052603260045260246000fd5b6001600160a01b0385811682528416602082015260408101839052608060608201819052600090610a8690830184610ae0565b60048110610dbb57634e487b7160e01b600052602160045260246000fd5b9052565b600081518084526020808501808196508360051b8101915082860160005b85811015610e07578284038952610df5848351610ae0565b98850198935090840190600101610ddd565b5091979650505050505050565b60808152610e2f60808201835167ffffffffffffffff169052565b60006020830151610e4c60a084018267ffffffffffffffff169052565b50604083015167ffffffffffffffff90811660c084015260608401511660e083015260808301516001600160a01b0381166101008085019190915260a08501519150610120610ea68186018467ffffffffffffffff169052565b60c08601519250610140610ebc81870185610d9d565b60e08701511515610160870152828701516101808701919091529250610ee66101c0860184610dbf565b90860151858203607f19016101a08701529092509050610f068282610ae0565b9150508281036020840152610f1f816000815260200190565b838103604085015260008152905060208101838103606085015260008152905060208101949350505050565b600060208284031215610f5d57600080fd5b815167ffffffffffffffff8116811461097257600080fd5b805169ffffffffffffffffffff81168114610ac057600080fd5b600080600080600060a08688031215610fa757600080fd5b610fb086610f75565b9450602086015193506040860151925060608601519150610fd360808701610f75565b9050929550929590935056fea2646970667358221220141cff354e0da51964ba181da18ee09f14e795bf464ca1af3ae02dd0dcd2160664736f6c63430008140033",
  "devdoc": {
    "kind": "dev",
    "methods": {},
    "version": 1
  },
  "userdoc": {
    "kind": "user",
    "methods": {},
    "version": 1
  },
  "storageLayout": {
    "storage": [
      {
        "astId": 993,
        "contract": "contracts/offRampBased.sol:offRampBased",
        "label": "spInstance",
        "offset": 0,
        "slot": "0",
        "type": "t_contract(ISP)541"
      },
      {
        "astId": 996,
        "contract": "contracts/offRampBased.sol:offRampBased",
        "label": "schemaId",
        "offset": 20,
        "slot": "0",
        "type": "t_uint64"
      },
      {
        "astId": 1001,
        "contract": "contracts/offRampBased.sol:offRampBased",
        "label": "trades",
        "offset": 0,
        "slot": "1",
        "type": "t_mapping(t_uint256,t_struct(Trade)987_storage)"
      },
      {
        "astId": 1005,
        "contract": "contracts/offRampBased.sol:offRampBased",
        "label": "isMerchant",
        "offset": 0,
        "slot": "2",
        "type": "t_mapping(t_address,t_bool)"
      },
      {
        "astId": 1009,
        "contract": "contracts/offRampBased.sol:offRampBased",
        "label": "isSeller",
        "offset": 0,
        "slot": "3",
        "type": "t_mapping(t_address,t_bool)"
      },
      {
        "astId": 1013,
        "contract": "contracts/offRampBased.sol:offRampBased",
        "label": "requestIdToTradeId",
        "offset": 0,
        "slot": "4",
        "type": "t_mapping(t_bytes32,t_uint256)"
      }
    ],
    "types": {
      "t_address": {
        "encoding": "inplace",
        "label": "address",
        "numberOfBytes": "20"
      },
      "t_bool": {
        "encoding": "inplace",
        "label": "bool",
        "numberOfBytes": "1"
      },
      "t_bytes32": {
        "encoding": "inplace",
        "label": "bytes32",
        "numberOfBytes": "32"
      },
      "t_contract(ISP)541": {
        "encoding": "inplace",
        "label": "contract ISP",
        "numberOfBytes": "20"
      },
      "t_mapping(t_address,t_bool)": {
        "encoding": "mapping",
        "key": "t_address",
        "label": "mapping(address => bool)",
        "numberOfBytes": "32",
        "value": "t_bool"
      },
      "t_mapping(t_bytes32,t_uint256)": {
        "encoding": "mapping",
        "key": "t_bytes32",
        "label": "mapping(bytes32 => uint256)",
        "numberOfBytes": "32",
        "value": "t_uint256"
      },
      "t_mapping(t_uint256,t_struct(Trade)987_storage)": {
        "encoding": "mapping",
        "key": "t_uint256",
        "label": "mapping(uint256 => struct offRampBased.Trade)",
        "numberOfBytes": "32",
        "value": "t_struct(Trade)987_storage"
      },
      "t_string_storage": {
        "encoding": "bytes",
        "label": "string",
        "numberOfBytes": "32"
      },
      "t_struct(Merchant)964_storage": {
        "encoding": "inplace",
        "label": "struct offRampBased.Merchant",
        "members": [
          {
            "astId": 961,
            "contract": "contracts/offRampBased.sol:offRampBased",
            "label": "addr",
            "offset": 0,
            "slot": "0",
            "type": "t_address"
          },
          {
            "astId": 963,
            "contract": "contracts/offRampBased.sol:offRampBased",
            "label": "cryptoLock",
            "offset": 0,
            "slot": "1",
            "type": "t_uint256"
          }
        ],
        "numberOfBytes": "64"
      },
      "t_struct(Trade)987_storage": {
        "encoding": "inplace",
        "label": "struct offRampBased.Trade",
        "members": [
          {
            "astId": 967,
            "contract": "contracts/offRampBased.sol:offRampBased",
            "label": "buyer",
            "offset": 0,
            "slot": "0",
            "type": "t_struct(Merchant)964_storage"
          },
          {
            "astId": 970,
            "contract": "contracts/offRampBased.sol:offRampBased",
            "label": "seller",
            "offset": 0,
            "slot": "2",
            "type": "t_struct(Merchant)964_storage"
          },
          {
            "astId": 972,
            "contract": "contracts/offRampBased.sol:offRampBased",
            "label": "Trx_Money",
            "offset": 0,
            "slot": "4",
            "type": "t_string_storage"
          },
          {
            "astId": 974,
            "contract": "contracts/offRampBased.sol:offRampBased",
            "label": "InrAmount",
            "offset": 0,
            "slot": "5",
            "type": "t_uint256"
          },
          {
            "astId": 976,
            "contract": "contracts/offRampBased.sol:offRampBased",
            "label": "extraEth",
            "offset": 0,
            "slot": "6",
            "type": "t_uint256"
          },
          {
            "astId": 978,
            "contract": "contracts/offRampBased.sol:offRampBased",
            "label": "EthLock",
            "offset": 0,
            "slot": "7",
            "type": "t_uint256"
          },
          {
            "astId": 980,
            "contract": "contracts/offRampBased.sol:offRampBased",
            "label": "agreed",
            "offset": 0,
            "slot": "8",
            "type": "t_bool"
          },
          {
            "astId": 982,
            "contract": "contracts/offRampBased.sol:offRampBased",
            "label": "Paid",
            "offset": 1,
            "slot": "8",
            "type": "t_bool"
          },
          {
            "astId": 984,
            "contract": "contracts/offRampBased.sol:offRampBased",
            "label": "remaningEth",
            "offset": 0,
            "slot": "9",
            "type": "t_uint256"
          },
          {
            "astId": 986,
            "contract": "contracts/offRampBased.sol:offRampBased",
            "label": "dealDone",
            "offset": 0,
            "slot": "10",
            "type": "t_bool"
          }
        ],
        "numberOfBytes": "352"
      },
      "t_uint256": {
        "encoding": "inplace",
        "label": "uint256",
        "numberOfBytes": "32"
      },
      "t_uint64": {
        "encoding": "inplace",
        "label": "uint64",
        "numberOfBytes": "8"
      }
    }
  }
}